S02B0000433A2F55736572732F736D6973682F53696D706C696369747953747564696F2F76365F776F726B7385
S214000000001300201DA40000E96D0000E96D00004B
S2140000108D760000E96D0000E96D0000E96D0000D6
S214000020E96D0000E96D0000E96D0000E96D000073
S214000030E96D0000E96D0000B1760000E96D000092
S214000040E96D0000E96D0000E96D0000E96D000053
S214000050E96D0000E96D0000E96D0000E96D000043
S214000060E96D0000E96D0000E96D0000E96D000033
S214000070AFFC0000E96D0000E96D0000B90D01005D
S2140000804D0D0100E96D0000E96D0000E96D00000E
S214000090E96D0000336F0000E96D0000E96D0000B7
S2140000A0E96D0000BD6E0000996E00006D7A0000DC
S2140000B0717A00008D7E0300E96D00003187030031
S2140000C051EB03004DEB0300D57E030067EB030006
S2140000D055EB03000187030059EB0300718703000B
S2140000E04565030009670300DD870300E96D00002E
S2140000F0E96D0000E96D0000E96D0000E96D0000A3
S214000100E96D0000E96D0000E96D0000E96D000092
S214000110E96D0000E96D0000E96D0000E96D000082
S214000120E96D0000E96D0000E96D0000E96D000072
S214000130E96D0000E96D0000E96D0000E96D000062
S21400014082B0BFF34F8FBFF36F8F30BF074BD3F82C
S214000150F030DB0704D500230193019B052B01DD5E
S21400016002B07047019B0133F6E700BF00ED00E0E8
S214000170F0B5114A114C124E00F00105E3695F0715
S21400018013D40DB9334213D103EA00078F4207D1C7
S2140001900B4A1A40002A0CBF00206FF00100F0BD89
S2140001A0013AEBD16FF00200F9E74FF0FF30F6E7C7
S2140001B06FF00100F3E700BF809698000000035040
S2140001C00200010000000000000000000000000027
S2140001D0000000000000000000000000000000001A
S2140001E0013800D0FCE7704708B5054B1B6823B103
S2140001F022F00040A0F580509847012008BD00BFBF
S21400020060260020064B586800B97047037E022B14
S21400021001D1037B0BB18068F6E70120704700BF71
S21400022060260020064A0346506800B9704790F8DA
S2140002302420D20702D5427E9A42F7D08068F4E79F
S2140002406026002008B5FFF7EDFF003818BF012034
S21400025008BD70477047084B70B51A7A044612B14D
S2140002605868064D00B970BD037E8668214655F86D
S214000270233098473046F5E760260020E420040047
S214000280054BCA0801F007010B44197C835C23EA7E
S21400029001038354704700BFE420040000680A4B43
S2140002A020F47F4020F00700984208D003F1A063B6
S2140002B0984206D0054BC31A584258417047022050
S2140002C070470320704700BFA0000A03A000060185
S2140002D010B500F1080454F8083C0BB9184605E0C0
S2140002E054F8040C984708340028F4D010BD054B89
S2140002F0D3F86C2122B1B3F8BA11B3F8B80110479D
S214000300704700BFA81B002070B5084C04F10C0015
S21400031039F04CFF25693DB10022AC466369A169FE
S2140003201046BDE87040604770BD00BF60260020E4
S21400033000F5805101483EF098BC00BF7C260020A6
S21400034000B589B08DF81E30029307AB8DF81D10EE
S214000350019300210323CDE903218DF81C000093AF
S21400036000220023092023F055FF09B05DF804FBA6
S21400037037B501780D291CD8DFE801F00C1D232ABB
S214000380313F475A57545107385D48F224044FF618
S214000390FF752EE0012148F2090403798DF8043038
S2140003A04FF6FF75254801AA24F0D8F808B18580D5
S2140003B0C48003B030BD037948F20C048DF80430D5
S2140003C0EEE70379012148F20F048DF80430E7E7E1
S2140003D00379012148F212048DF80430E0E783889F
S2140003E0022148F22404ADF80430D9E748F242046A
S2140003F08588134828F071FDD8E78379012148F2F3
S214000400420485888DF80430CCE7837982880321FE
S21400041048F22304ADF804208DF80630C0E748F211
S2140004201204B4E748F20F04B1E748F20C04AEE752
S21400043048F20904ABE748F22304A8E7FC200400CE
S214000440A80414022DE9F8430E4617461D469DF8EB
S2140004502090BDF82880BDF82C100C9A60B1447826
S214000460BDF82430A4B20B3B062B14D8DFE803F00B
S2140004700713151319131B004FF0FF34F0E70F484E
S21400048028F02BFD38B18780C4800681458180F82E
S2140004900C90A0F80D80BDE8F883094824F05EF8BB
S2140004A0F0E70848FAE70848156828F016FD00281F
S2140004B0F1D08480C0F80650EDE700BFA80B4701D6
S2140004C00021040004210400A80647042DE9F74F84
S2140004D00F9C884691461F469DF830A09DF83450E4
S2140004E080B14678BDF83830B6B2033B0E2B3AD80A
S2140004F0DFE803F00B1B393C393F533939393939BA
S21400050039396E004FF0FF36ECE72488354828F07E
S214000510E4FC40B3A0F80490C680A0F808804781A9
S21400052080F80CA0A0F80D401DE02388A268A188E2
S2140005302D4894F802B094F803A0019324F00EF826
S21400054088B1003D18BF0125019B6D00A0F80490FE
S214000550C680A0F8088047810573A0F80D3080F8A3
S2140005600FB080F810A003B0BDE8F08F24881F48B5
S214000570CDE71F482588648828F0AFFC0028F2D015
S214000580A0F80490C680A0F80880478180F80CA0E8
S214000590A0F80D50A0F80F40E5E7A268A18815481E
S2140005A0B4F800B0B4F802A023F0D8FF0028DAD0E0
S2140005B0003D18BF01256D00A0F80490C680A0F885
S2140005C0088047810573A0F80DB0A0F80FA0CAE711
S2140005D00948246828F081FC0028C4D08680C0F82A
S2140005E00640C0E7A80B480008210400A80B4802F4
S2140005F0A80D48030C210400A806480570B504465B
S2140006000C302AF0ABFF0023666856F8232062B948
S21400061006EB8305B5420AD123697BB900236380C4
S214000620637823F00E03637070BD0133EDE755F871
S214000630043DDB68002BEDD09847EBE7DD68002D26
S214000640ECD0043D55F8043F002BE7D09847F9E777
S214000650F7B5186810F0020003D0194D296811B9D3
S214000660012003B0F0BD002404222346684600940F
S21400067039F092FDBDF80230DB0709D4284639F080
S214000680B6FD042101900DEB010039F029FE019C16
S21400069000260C4F57F8043B23B12146BDF8000056
S2140006A0984748B12B68002BDAD0074B022193F904
S2140006B0000038F025FFD3E70136062EEAD1F1E731
S2140006C0B4250020B8250020B02500202DE9F041F3
S2140006D0374D88B0D5F8A8301B680193C3B1002108
S2140006E00DF10202084622F0C5FF88B9BDF80210D7
S2140006F01EF0C6FEEEE7019B8BB102200DF1020252
S21400070022F0B8FF58B90220BDF802101EF0B8FE5D
S21400071001A902201EF0FEFA01460028EBD00024B4
S214000720AB6B9C4225D300244FF6FF782746D5F8BE
S21400073090329C4225D3002402AB22462146204616
S214000740029423F0BAFC029B13B1204619F0A9F8D4
S214000750002002A9029423F0DBFC029B13B10020C8
S21400076019F09FF828F0DCFD00232B7008B0BDE8D8
S214000770F08120461AF0CCF800211AF091F90134E5
S214000780CEE7204618F08EFF03780646DB070AD52C
S214000790079B02A903F07E43ADF80870ADF81A80F7
S2140007A007931CF0E5FB30461CF058FC0134BEE70E
S2140007B0A81B002038B505460C4642F2420006212A
S2140007C015F0F0F80023C57043718371C37103728E
S2140007D0047106482CF04EFA15F0F8F8407918B176
S2140007E0BDE8384015F0D0B938BD00BFE1CD0200F5
S2140007F0122808D80E2808D9103802280AD8DFE8A8
S21400080000F0100D1300FF2811D041EA002040F43C
S214000810805001E041F4085080B2704741F4105017
S214000820FAE741F43C50F7E741F4F850F4E74FF4A8
S214000830005070472DE9F04F017A0546C1F3411488
S214000840012CA14A8FB004D182F820400FB0BDE839
S214000850F08F92F820300BB9022C03D1002382F8D7
S2140008602030F3E7C268407A002AEFD00228EDD99C
S214000870D65C771C3B449842E8D356B39842F7D8E8
S214000880CB06E3D501F007010C43DFD11378002B2C
S214000890DCD0517829390229D8D821462046013B98
S2140008A0023239F045FF01460028CFD0EB68AA791E
S2140008B05E7895F907302A2E009013D00CD8162EA5
S2140008C0C4D0292E13D068461AE0D65C002EBDD1BF
S2140008D001339842F9D8D3E72B2EF4D1294621F0DC
S2140008E0A9F9B3E71A4620461CF0B4FDAEE701901E
S2140008F039F0D2FC019984B209B1052C03D801A8BD
S21400090039F054FCA2E70023062202A839F044FC82
S2140009109DF80D5005F00303032B40F0A680AD08AC
S214000920012D48D0022D6FD0002DE8D1162CE6D12F
S2140009304FF0150B654B2246D3F8C46201992B463F
S21400094008A839F029FC624B93F828A05545D6D262
S2140009500BFB05F934684C4494F80880B8F1010F95
S21400096018D11022D4F809000DF126013EF014F932
S2140009700746F0B903232372089BC4F80D3030688D
S21400098048441AF019FED6E900033A464146484460
S2140009909847B4E7B8F1030F0BD11022D4F809003A
S2140009A00DF126013EF0F8F818B920461AF004FEBC
S2140009B0A5E70135CAE7062CA1D100254FF015089A
S2140009C000232246019908A839F0E6FB3F4BD3F8EE
S2140009D0C4623F4B93F82870BD4290D2346808FB3F
S2140009E00544237A022B0DD1042208A904F10D0038
S2140009F03EF0D2F8024628B903232372012120468E
S214000A007368C5E70135E7E7072C7FF478AF002663
S214000A104FF0150A00232246019908A839F0BCFBBE
S214000A202A4BD3F8C4722A4B93F828904E45BFF44D
S214000A3066AF0AFB06F83D6845442B7A032B12D1B5
S214000A40042208A905F10D003EF0A6F8044650B9A8
S214000A5001461522284639F080F8D7E900032246D9
S214000A602146404494E70136E0E700244FF015099C
S214000A70164BD3F8C462164B93F828804445BFF44F
S214000A803EAF09FB04F7316839440B7A032B19D1C2
S214000A9004220D3102A83EF07FF8054690B901A861
S214000AA0052139F01DFC019839F0F6FB00283FF4CB
S214000AB026AF3068B368019A9DF80C103844984702
S214000AC001951CE70134D9E760260020A81B00200A
S214000AD0D025002013B501210024884238BF0846DF
S214000AE0224601AB01940BF01FFA10B9019802B030
S214000AF010BD2046FBE713B50024012838BF0120AF
S214000B00214601AA019425F053FB10B9019802B0C2
S214000B1010BD2046FBE7012213B50024904238BFE3
S214000B201046114601AB01940BF0FEF910B901987E
S214000B3002B010BD2046FBE713B501210024884211
S214000B4038BF084601AA019425F032FB10B9019877
S214000B5002B010BD2046FBE71FB50024CDE90023F8
S214000B6002940A4640F0004102483EF099F804B06C
S214000B7010BD00BF8426002041EA00210022002389
S214000B800A20E9E70022002300210B20E4E710B446
S214000B90090300049DF8044000F4702089B2120294
S214000BA0014302F47062114304F00F040C43190170
S214000BB0C9B221430022002308205DF8044BCBE78E
S214000BC010B40A4CC2F30B0204EA0334144344EA9A
S214000BD0016140B1022814BF0D200C200022002322
S214000BE05DF8044BB8E70220F8E700BF00F0FF000E
S214000BF00B46A0B10168D9B903B3114B19684A1C5A
S214000C0014D101224FF0FF311A60016003E0012287
S214000C104FF0FF311A600022002315209CE769B1CF
S214000C20074B19684A1CF2D01A60F4E71A60ECE722
S214000C30002BF0D1002200231620EFE7704700BFFC
S214000C40E83A002020F00043152B70B505460C4608
S214000C50164603D0162B07D0012070BD104828F08A
S214000C603CF958B14460F7E70E4828F036F928B149
S214000C7003230372042344604372EDE776B10A4B04
S214000C804FF47A72196800238800890F38F076FAD4
S214000C9002460B4628462146FFF75EFF0020DCE7AB
S214000CA0A8041800A80618018016002038B53EF0E3
S214000CB02BFD174A03468242164A8A4126D3164A15
S214000CC01068E0B14FF47A72A3FB024302FB0131D5
S214000CD0431E034214D1B0FA80F0C243C0F11F0590
S214000CE0431C01FA03F324FA05F021FA02F2184332
S214000CF01043E9404FF47A72002338F03FFA38BDCB
S214000D0002460023204638F039FAF3E70020F6E7DB
S214000D10EFA7C64B37894100801600207FB541EA11
S214000D20000416461D4621460F4802AB03AA07F0EC
S214000D30F3FC80B9029A2B689342A8BF13469A42E6
S214000D400BD90093324603462146074807F09CFC21
S214000D5008B9029B2B6004B070BD3246214602489B
S214000D6007F050FCF4E700BF8815002013B51446C2
S214000D70019201AB0A4601464FF48020FFF7CEFFF2
S214000D8020B90198001B18BF0120400002B010BD1A
S214000D9013B5144601436B46044801AA07F0BCFC91
S214000DA008B9009B236002B010BD00BF8815002064
S214000DB013B51446019201AB0A4601464FF4C02013
S214000DC0FFF7ACFF20B90198001B18BF01204000B8
S214000DD002B010BDB2F5805F134605D80A4640F44F
S214000DE0C021024808F0EAB91D2070478815002087
S214000DF007B5014601AA4FF48020FFF7C9FF18B9CE
S214000E00019803B05DF804FB0020FAE7F8B500216E
S214000E100746FFF7EDFCFFF7EBFFC0B1FF213846B2
S214000E20FFF7E6FCFFF7E4FF044688B9FF26A5199E
S214000E306D0829463846FFF7DBFCFFF7D9FF002888
S214000E400CBF2E462C46731EA342F0D8601CF8BD7D
S214000E50FF20FCE7002108B5FFF7CAFCFFF7C8FF34
S214000E60003818BF012008BD73B5002405460E469D
S214000E700194B54202D9204602B070BD4FF4C0209E
S214000E8001AAA9B2FFF784FF0028F4D1019B002B2A
S214000E90F1D01C440135ECE72DE9F3411646054632
S214000EA088461F46FFF7E0FF04463060454509D9EF
S214000EB00020002C08BF204633681B1B336002B09E
S214000EC0BDE8F081FE2C2346A8BFFE233A460193D8
S214000ED04FF4C02001ABA9B2FFF720FF0028E8D1ED
S214000EE0019BE41A1F44E4D00135DFE72DE9F04109
S214000EF004460F4680B289B215461E4627F0E6FE27
S214000F00A7420ED3FE2DA846A8BF4FF0FE083146D6
S214000F104246A0B2FFF75EFF20B9B5EB080546448F
S214000F2002D10020BDE8F0810134E9E730B4FE25A7
S214000F300C460849134601EBC001D1E90B010A1A19
S214000F4002FB0555AC4202D8224630BCCEE7212033
S214000F5030BC7047E4200400052B07D920F47F40FE
S214000F6020F0C70040F4007010609180704770B5A4
S214000F7004020D4604F4E064C0F30721084A0C435B
S214000F800434D2E90A329C4207D91D21FFF7E4FF58
S214000F900022134610462B6070BD1060043BF9E734
S214000FA060260020094B0246586810B5C0F30800BA
S214000FB048B9074B0C681B68C2E900131C60054B58
S214000FC01B68936010BD1420FCE700BF00ED00E036
S214000FD0141F0020101F00202DE9F84F1D460C6836
S214000FE016464FEA042AC4F307230AF4E06A4AEADC
S214000FF0030A1F4B0AEB050B1B680BF104029A420F
S2140010000746DDF828802DD80123F20093409D4244
S21400101028D215B1B8F1000F27D03846FFF7C2FF27
S2140010208146E0B924F47F4424F0C70444EA1B2434
S2140010304FEA0B2B7B681FFA8BFB44EA0B0443F842
S214001040044B53442DB118462A4641463DF0CEFD8A
S2140010500346012E0CBF03F8015C23F8025C4846E9
S214001060BDE8F88F4FF01D09F9E74FF02209F6E7C3
S214001070101F002010B504460DC81146406800F049
S214001080A3FA6368988810BD1FB50446094901A8ED
S214001090FFF788FF60B901A8FFF7ECFF2346029A26
S2140010A0911D163251F8044B914243F8044BF9D186
S2140010B004B010BD282104001FB5084901A8FFF799
S2140010C071FF28B901A8FFF7D5FF029B9B7900B1F5
S2140010D00023184605B05DF804FB00BF302104006D
S2140010E02DE9F04F8BB0002846D0274E274B01281D
S2140010F018BF1E460124264FA7F1080807F1040969
S214001100022301224146009706A8FFF765FF002844
S21400111037D1079D06A8AC80FFF7ACFFB5F806A050
S2140011201FFA8AF468BB494603A8FFF73BFF40BB9B
S214001130049DA5F804A0A871E87103A8FFF79AFF1C
S214001140B5F806A08346BAF1100F1AD8524605F134
S214001150080106A83DF04AFDBBF1000F11D1BAF117
S214001160020F0BD15246314606A83DF015FD28B9B0
S21400117020460BB0BDE8F08F064EBBE70134A4B2A4
S214001180BEE70020F5E700BFEC3A0020CF200400C1
S21400119040210400CC2004001FB50446064901A8DF
S2140011A0FFF700FF28B901A8FFF764FF029B9B79B1
S2140011B0237004B010BD00BF4C2104002DE9F0419F
S2140011C086B06D4607460E4603A80E4985E80C0015
S2140011D0DDF83080FFF7E6FE88B9049C0098AB88FF
S2140011E0C4F8060063812771667103A8FFF742FF03
S2140011F0D4F80630C8F800306389A8F8043006B082
S214001200BDE8F0815421040010B586B004AC214638
S214001210062038F023FC9DF81530074803F03F03FE
S2140012208DF8153002AB0093032194E80C0000788B
S214001230FFF7C4FF06B010BD991B00201AE730B5B3
S21400124085B005460C4601A80649FFF7ABFE30B947
S214001250029B01A81D71C3F80540FFF7EFFF05B01C
S21400126030BD00BF5C2104001FB5054901A8FFF78B
S21400127099FE10B901A8FFF7E1FF05B05DF804FB81
S214001280642104001FB5054901A8FFF78BFE10B9BD
S21400129001A8FFF7D3FF05B05DF804FB6C2104003E
S2140012A0F0B585B007460E4601A81F49FFF77AFE3F
S2140012B0044618BB01A8FFF7DDFE029B0446DD8846
S2140012C0E0B93046EFB1FFF70BFF0646174901A815
S2140012D0FFF768FE044638B9029B01A89D80DE80B1
S2140012E0FFF7ACFF044688B1114901A8FFF75AFE84
S2140012F020B9029B01A89D80FFF7A0FF204605B0FD
S214001300F0BDFFF7EDFE0B490646E0E70A4901A8E7
S214001310FFF748FE04460028F0D1029B01A89D80F6
S214001320FFF78CFF0446E9E7742104007C210400E3
S2140013308C2104008421040094210400034B1B7AB2
S2140013400BB10221ACE70F20704700BF60260020DB
S21400135038B5164B04461B7A2BB3FEF753FF0546EB
S214001360C0B1134A92F907304BB1012B0CD00133B0
S21400137003D1003C18BF0124D471002038BD003CC6
S21400138018BF01246442F7E7002C08BF4FF0FF3374
S214001390D371F2E701212046FFF782FF2946204657
S2140013A0BDE838407CE70F20E8E700BF6026002055
S2140013B0E83A0020F0B52C4B2C4C85B02363002374
S2140013C063632B4BA363237A43BB2A4901A8FFF729
S2140013D0E9FD30B94522029B58711A7101A8FFF742
S2140013E049FE0220FFF77CFEC0B10020FFF778FE22
S2140013F0A0B14FF48870FFF76DFBE06370B1002674
S214001400442707FB06F5E06B28444130FFF7C4FE8F
S214001410024678B1443D15F1440F04D10020164B26
S214001420236405B0F0BDE36B2B4493F8410027F02E
S2140014300DFCEFE70136042EE3D11049104838F0D2
S21400144055FA05460028E9D10E4B0F4A23600F4B8C
S2140014501A600F4A0F4B1A6001232372FFF76EFFC4
S2140014602846FFF775FFD9E7F10B0000602600203D
S2140014705D8D01009C210400450C0000E901000080
S2140014807C260020F522000057020000081F0020DE
S21400149045020000A01B002030B587B005460C466C
S2140014A000930749134603A80122FFF795FD28B9C4
S2140014B0049B03A81D715C71FFF7C0FE07B030BD2A
S2140014C0A421040030B585B005460C4601A806499F
S2140014D0FFF768FD28B9029B01A81D715C71FFF734
S2140014E0ADFE05B030BD00BFAC21040038B5084DD8
S2140014F0134604460A46285C0021FFF7CDFF014646
S21400150018B9285DFFF7DEFF00B10E2038BD00BF1A
S214001510991B0020084A136833B94178436141F0AB
S2140015200101417010607047197802789142FAD034
S21400153003F114025B69EFE7701B002038B50369FE
S21400154005462BB1186818B1FEF7C2FE044610B95E
S2140015500024204638BD2846FFF750F8F9E770B556
S2140015604378054623F00C0343F0020343700369F7
S21400157053B1586840B1FEF7ABFE044620B128468A
S214001580FFF73CF8204670BD6E68043E56F8044FE0
S2140015902CB9202005F10C0129F0CEFFF2E7A36854
S2140015A0002BF3D0984704460028EFD0E7E7054A1B
S2140015B00346106810B102789A4200D1704740691D
S2140015C0F8E700BF701B00202DE9F8430E680446BC
S2140015D006F0380017469846FFF7E9FF60B1D0E9F5
S2140015E00135427812F0020F18BF1D46C6F30742B7
S2140015F0043D55F8043F3BB90F21304643463A4672
S214001600FFF7AAFC084619E018789042F1D15CB9B9
S2140016105D68320E002DEFD02C68002CECD06B7974
S214001620934201D00835F7E7054D081DD5E90A694C
S214001630C5E90A87A0470020C5E90A69BDE8F8831E
S2140016406026002007B501A9FFF791FC03B05DF8FE
S21400165004FB10B50468FFF729FB054B001B186751
S2140016600448FFF7EFFF00230371437110BD00BF6E
S214001670A81B002028021419F0B58DB06A4614463F
S2140016801F4B03F11006154618685968083303C542
S214001690B3422A46F7D11B4D1022294620463DF07C
S2140016A07BFA30BB1022214642F23000FFF75EFB89
S2140016B040F202572D2818BF074694E80F0004AEE4
S2140016C086E80F001048FFF7BDFF044696E80F00B7
S2140016D008AD85E80F00A780A31D0CAC2A4603CAF8
S2140016E0A24218605960154603F10803F6D10DB002
S2140016F0F0BD95E80F00002784E80F00DDE700BF87
S214001700B4210400C41B00202812140310B503786B
S214001710002B14BF0124002408D1084B83F86C402A
S21400172000240748FFF78EFF848010BD19F040FAAA
S214001730044B9842F1D82124F3E700BFA81B0020F1
S21400174028021406FF8B0A0038B5114B00889B6BE5
S21400175098420FD219F0DCF888B1D0F80640B4F100
S214001760807F10D200250B48FFF76CFF8580C0F8FD
S214001770064038BD4FF0FF3440F20255F3E74FF015
S214001780FF342125EFE74FF0FF3440F20355EAE738
S214001790A81B00202806141D38B5074B074893F8E9
S2140017A068401D6EFFF74EFF0023C0F80650037119
S2140017B04371847238BD00BFA81B00202807140D93
S2140017C010B50E4C94F86810B1B908461DF070FDBF
S2140017D028B121240A48FFF735FF848010BD19F090
S2140017E0E7F9084B9842F4D90122216E10461144BD
S2140017F019F0EEF90446EDE70224EBE7A81B0020FB
S2140018002802140EFF45050013B5007802280CD9EF
S2140018100E48FFF717FF00232122437102718371E0
S214001820C3710372437202B010BD01A91DF072FAB3
S21400183048B9019C0548FFF705FF0023C0F806409D
S21400184003714371EFE70024F4E700BF2806141A7B
S2140018501022F0B50021054689B00DEB0200ADF868
S21400186006100291ADF8041038F077F92C78022CA7
S21400187035D803AE31462046D5F801701DF04AFA39
S21400188010B9039B9F421AD340F202542948BDF870
S2140018900450BDF80660FFF7D5FE04AA05818480D3
S2140018A0C68000F10A0308AD144603CCAC421860AB
S2140018B05960224603F10803F6D109B0F0BD204670
S2140018C039460DF1060221F0D5FE04460028DDD18A
S2140018D02878BDF8061002286B79039401D92124D4
S2140018E0D4E7002B0DBF33460023324600221EF0FD
S2140018F072FA044603980028C6D00290002CC5D180
S21400190004A922F04DFE044602A824F0E5FE002CB1
S214001910BCD12B78012BB9D1BDF8060001A91DF06A
S214001920D9FC40F2155440F20253984218BF0446C0
S214001930ACE700BF2816141B08B5074B1B7843B945
S21400194027F0EEFC0548FFF77DFE00230371437188
S21400195008BDFEF7BBFEF5E7A81B002028021415FD
S2140019602DE9F84F554C23685D0707D5002108463A
S214001970FEF720FF236823F004032360504D2368FE
S2140019802A6803F0080302F00202134325D095F8F4
S21400199024202B1D05F10B06012A08BF1E46B3792D
S2140019A0062118076FD54FF6284013F0FBFF336863
S2140019B0C0F80330B388A0F8073042482BF05AF935
S2140019C014F004F84379002B57D1236823F008035A
S2140019D023602B6823F002032B602A68236802F03A
S2140019E0400103F002030B4337D09206364A95F8BF
S2140019F02410A2F107034CBF0127A77A012918BFBC
S214001A00134642F2410008219E7994F809B094F8F2
S214001A1008A0B4F80490B4F8068013F0C3FF86F06C
S214001A200806C6F3C00680F805B080F806A0A0F841
S214001A300790A0F80980C670077124482BF01AF9A1
S214001A4013F0C4FF4379002B32D1236823F002033E
S214001A5023602B6823F040032B60E37A5BB1236896
S214001A605B0708D401210846FEF7A4FE48B92368A0
S214001A7043F004032360002003E014F085F80028F8
S214001A80A3D0BDE8F88F42F2050013F08BFF336851
S214001A90C0F80330B388A0F807300D482BF0EAF8FA
S214001AA013F094FF4379002B8FD014F06DF8E6E71F
S214001AB014F06AF80028E4D1C7E700BF4C250020E0
S214001AC0002500201DCE02000B25002079CD020047
S214001AD0DDCC020070B5124C257B637B22689D42EC
S214001AE0B8BF1D469207E37AEEB201D49E4214D0E8
S214001AF01BB10023E372FFF733FFE6726DB1094BAB
S214001B0093F82430012B05D1236843F002032360A9
S214001B1015F0AAFDBDE8704022E7002070BD00BFAA
S214001B204C250020002500201FB50446054901A8C5
S214001B30FFF738FA20B9029B01A81C71FFF77EFB5D
S214001B4004B010BDC42104002DE9F04F85B0064650
S214001B508B469A4617469DF838904D4D002A6AD116
S214001B604FF0440808FB00F8E86B404490F8433018
S214001B706BB91346202290F84100114622F002FB72
S214001B80044628B90122EB6B434483F84320002423
S214001B90BBF1000F72D03F4BC6F3C40106F007023C
S214001BA029441A4491F84410127C11423DD04FF05B
S214001BB04408022F08FB06F816D1EA6BD3F8E800B3
S214001BC0424492F841B0B3F8EC3002AC029058466A
S214001BD0ADF80C30FFF7A8FF009494E80C003946E7
S214001BE05846FFF7EBFA0446EA6B02EB080393F855
S214001BF04100002C42D1BAF1000F36D1EA6B4244C4
S214001C0092F84100B9F1000F07D002F1220301213A
S214001C10128CFFF741FC044680BBEB6B0221434469
S214001C2093F84100FFF74EFC04463CBB00242046D8
S214001C3005B0BDE8F08F012AA9D14FF0440808FB93
S214001C4000F8E86B404490F84230002B9FD12022E9
S214001C5090F84100114622F095FA0446002897D1E4
S214001C60EB6B434483F8427091E7214632F8082034
S214001C700233FFF711FC04460028BFD04422EB6B6A
S214001C8002FB063393F84100FFF74EFFCFE700BF95
S214001C9060260020E420040073B50B4D2B7A8BB130
S214001CA00024264685F8640000960023032220467A
S214001CB095F86410FFF748FF10B90134042CF3D1EF
S214001CC002B070BD0F20FBE760260020034610B56B
S214001CD0E8B182680AB141685160596801B18A600A
S214001CE00B4C0021626818469A4204BF9A686260EC
S214001CF0282237F032FF09F0A9FF606810B9BDE866
S214001D001040C9E7037E012B01D08068F6E710BDBE
S214001D10602600200323F0B5D0E90456077B85B083
S214001D2003760446FFF7D2FF4FB9FEF76BFA01467B
S214001D3028B90D4A92F9073063B1012B10D0012360
S214001D408DF80430002332462046029301A9A847A6
S214001D5005B0F0BDFF21D1711946FFF7A1FAEEE7F5
S214001D60FF20D0711846F8E7E83A00201FB5044671
S214001D700846FEF793FA02280CD003281ED0012846
S214001D803CD18A79637E9A4238D1204604B0BDE8B9
S214001D901040BFE70A79637E9A422FD1B1F805203A
S214001DA0A38B9A422AD1CB79012B27D10B89DB074B
S214001DB024D4204604B0BDE81040ABE7CB79522BC4
S214001DC01CD10A79637E9A4218D1B1F80530628B2D
S214001DD09A4202D0E28B9A4210D14B8901F10C0252
S214001DE00021084638F0A4FC40B1022302908DF88A
S214001DF004302046D4E9043201A9984704B010BD47
S214001E0010B5044686B00846FEF748FA012831D0D9
S214001E1002282DD1B1F80520A38B9A4228D1CB7980
S214001E20012B25D10B89DB0722D509790846FEF759
S214001E30F9F918B1027B237B9A4219D094F8243022
S214001E40617643F00103022184F82430002301AABE
S214001E500193ADF808308DF80C30217692E8030037
S214001E600493ADF814102046D4E9043203A9984729
S214001E7006B010BD06B0BDE810400DE72DE9F04FE6
S214001E8089B01546DFF88CA19DF848209AF808809E
S214001E900692139A04460F46BDF850600592B8F1B4
S214001EA0000F00F0A7802DB1002900F0A7801D2D9F
S214001EB000F2A48036B1059A002A00F09F801F2EFB
S214001EC000F29C80032C00F29980002B4AD04D4AE9
S214001ED09AF86590224492F810B01BEA090940F07F
S214001EE08F8004F5805242F0004207924FF47A72D7
S214001EF002FB03F1444BCDF8089018684FF47A7251
S214001F000023A1FB000137F039F94A46CDE900016C
S214001F1007993E483CF0C4FE00286CD19AF865301C
S214001F204BEA030B8AF865B04423DFF8E8B0634356
S214001F30DBF83C20D15A02EB0309A94209F1020A58
S214001F4018D12A46394650463CF026FE90B31D224C
S214001F500021504637F001FE2A46394650463CF0EE
S214001F6045FE0FE02046FEF7E3F92948E1B2FEF70A
S214001F7087F9D9E7D55200211D22504637F0EDFDEE
S214001F80002FE9D14546B9F8203009F12207B342BF
S214001F9012D13246384605993CF0FEFD40B31F226A
S214001FA00021384637F0D9FD3246384605993CF0D0
S214001FB01DFE0BE00546E6E71F2200213846A9F87D
S214001FC0206037F0CAFD059B002BEDD10D4A9BF82B
S214001FD044302244127C012113438BF844302046BF
S214001FE02B46069ACDF8488009B0BDE8F04FABE521
S214001FF08046EBE70F2009B0BDE8F08F2120FAE716
S2140020000220F8E7E4200400801600207C2600204A
S214002010C5260020602600202DE9F047994E077857
S21400202096F800A0A0B0BAF1050F00F02681B90717
S21400203000F02581032F00F22281BAF1010F40F053
S2140020401C810023904D0693D5F88880B8F1000FC8
S21400205040F013814FF0FF328C4B4FF4A8709A601B
S214002060FEF749FD0446C5F88800002800F0038105
S2140020704FF4A872414637F070FD17F0010911D0F1
S21400208022464046D6F8D43006F11C01984704464E
S21400209080B119F0B2FA7E48FFF7D4FA848020B0F7
S2140020A0BDE8F087BA0754D4022384F834A033700E
S2140020B00024F0E7BB074CD4D5F8883083F834A06A
S2140020C04FF0000A1C22514619A8CDF860A037F040
S2140020D044FD18F0C9FE0DF11701044601208DF8E5
S2140020E017A037F0BBFC96F834206A4B524508BF61
S2140020F05746DFF8B0C118BF1F46A3F1140E85F887
S2140021008EA0043B724603CA9A42CCF80000CCF874
S214002110041096460CF1080CF4D164BAA5F89F405A
S214002120002F7CD03B6807A9C5F8A130182385F896
S2140021308C302B2385F88D301D230DF1620007931C
S21400214022F03EF8002800F0888000244746192137
S2140021506DE00120FFF7F2F80446002899D118F048
S21400216083FE41F6270203464B4FADF860200DF183
S214002170620407F1100C3A4603CA624520606160AB
S214002180174604F10804F6D15BBAADF872304FF486
S21400219081730322ADF820300227062311468DF8FE
S2140021A0223000973D4B08A816F0A2FA14230146E9
S2140021B01622009308A818AB16F09AFA10AC22461E
S2140021C0824606A94FF6FF7026F0B0FC069B5246E4
S2140021D0002B08BF00249BB2CDE90143002308A9C9
S2140021E018460093FFF74AFE044600287FF451AFD6
S2140021F0D5F888200146D6F8D43001200432984716
S214002200044600287FF445AF0122D5F8883083F8CD
S2140022103420B9F1000F7FF453AF377048E714232A
S21400222085F88C302B2315213C4685F88D3001200F
S2140022301B4AFFF75BF928B927B13A460220A1B23C
S214002240FFF754F902233370B9F1000F3FF430AFB3
S2140022500121084618F071FB2AE7079C002C3FF482
S21400226075AF631C8DF86030242302348DF861301E
S2140022700DF160086AE71A240DE702240BE7212413
S21400228009E700BFA81B002060260020E83A0020CF
S21400229028021401D81B0020C41B0020CF200400F5
S2140022A0EC260020EF26002073B5114C0546237A55
S2140022B0CBB1032819D8EEB2FEF73AF804F1650060
S2140022C03146FDF7DDFF04F1440000243146FDF7FA
S2140022D0D7FF23460322214628460094FFF734FC06
S2140022E0204602B070BD0F20FBE72120F9E700BFB3
S2140022F060260020D8E7F7B5104D2B7ADBB1002416
S21400230027466535E6B22046FEF712F831462846DF
S214002310FDF7B6FF31460A48FDF7B2FF0023204618
S2140023200322194600970134FFF70EFC042CE9D16E
S214002330002003B0F0BD0F20FBE700BF60260020A2
S214002340A42600200346800B01280BD0022809D0C3
S21400235018B9181E18BF01207047B3F57F4F34BF59
S21400236003200420704708B518F0D2FA00B1808820
S21400237008BD10B50C4618F0CBFA20B12146BDE8D2
S214002380104018F09DBB10BD2DE9F0414FF4885168
S21400239006460088FFF7EDFFB378054630B92124DE
S2140023A02648FFF74FF98480BDE8F081002BF6D071
S2140023B0D0F82D2012B140F20654F1E74FEAD308C8
S2140023C003F0F80733F0F803E9D10C20FEF782FBA0
S2140023D0044638B13846FEF77DFB606020B92046DB
S2140023E009F034FC1A24DBE73A46F11C3CF0FEFB0D
S2140023F0134F144BA4F800803088C5F82D4041F2E6
S2140024000111A360C5F82970FFF7B3FF0646002840
S214002410C5D0D0F82D40002CCDD10820FEF75AFBB1
S2140024200028DFD0C6F82D00D5F82D301837036009
S214002430054B4360C6F82970B2E700BF2802470084
S214002440D421040045040000CD0400002DE9F04F1F
S2140024504FF4885105468BB04088FFF78AFFEF7926
S2140024608146002800F0BD80002F00F0BD802B883C
S2140024700393AB880493AB7905937B1C18460693AD
S2140024801CF0C0FA0990002800F0A98083794FF06C
S214002490010A1844522300240373BB1E0835079311
S2140024A0079B9C4219DBBAF1010F65D0DDE90321D9
S2140024B0059B48460093099B25F098FF044600B903
S2140024C00990099B13B109A837F070FE4748FFF73B
S2140024D0B9F884800BB0BDE8F08F2A195078295DD2
S2140024E0967841EA00210FFA81FCADF82210002907
S2140024F042D0A21C3244BA423EDC0998002E3DD09F
S214002500721E102E92B23BD8B1F5006F38D80AF181
S2140025100208520002F01E021FFA88FB16FA88F81C
S21400252042EA4C12C90847458DF820208DF8211044
S21400253022DB5346012208A91CF081FA0AF10103A6
S214002540012209989BB20DF121011CF078FAE11CDA
S2140025505B46324609988CB215FA81F11CF06FFA88
S21400256009A8012137F0E3FE34440998A4B21FFA03
S21400257088FA37F091FE68BB2124A2E77F22C3E7E2
S2140025800AF10308069B52001FFA88FB16FA88F821
S21400259042F0010298458DF82120EDDC53460122D9
S2140025A00DF121011CF04BFA0AF1010302220998F1
S2140025B09BB20DF122011CF042FAE11C8CB23246AD
S2140025C05B46099815FA81F11CF039FA2644B4B234
S2140025D01FFA88FABAF5C07F7FF662AFCCE71A24F6
S2140025E06FE740F2025471E721246FE728024703A1
S2140025F010B54FF48851044688B04088FFF7B9FEFE
S214002600B4F80730E0B1F3B18DF81C301B0A8DF832
S2140026101D3004F10A03A179627A02930223CDE900
S2140026200321019307AB0093A2882188532325F04A
S21400263047FF04460548FFF705F8848008B010BD3C
S21400264040F20254F6E72124F4E700BF28024704CC
S21400265010B54FF48851044688B04088FFF789FECD
S214002660B4F80730E0B1F3B18DF81C301B0A8DF8D2
S2140026701D3004F10A03A179627A02930223CDE9A0
S2140026800321019307AB0093A2882188542325F0E9
S21400269017FF04460548FEF7D5FF848008B010BD36
S2140026A040F20254F6E72124F4E700BF280247056B
S2140026B010B541F20111044688B04088FFF759FE74
S2140026C0B4F80730E0B1F3B18DF81C301B0A8DF872
S2140026D01D3004F10A03A179627A02930223CDE940
S2140026E00321019307AB0093A2882188572325F086
S2140026F0E7FE04460548FEF7A5FF848008B010BD37
S21400270040F20254F6E72124F4E700BF280248000E
S21400271010B541F20111044688B04088FFF729FE43
S214002720B4F80730F0B103B3627AD1071DD48DF840
S2140027301C301B0A8DF81D3004F10A03A1790293A0
S2140027400223CDE90321019307AB0093A2882188D9
S214002750582325F0B5FE04460548FEF773FF84802F
S21400276008B010BD40F20254F6E72124F4E700BF9B
S2140027702802480130B541F20111044689B040886C
S214002780FFF7F7FDB4F8072020B31AB3B4F8093002
S21400279003B38DF81E301B0A8DF81F3004F10C03AE
S2140027A0E17AA57902930423CDE9031501938DF808
S2140027B01C2007AB120A00938DF81D20A2882188E2
S2140027C05B2325F07DFE04460348FEF73BFF84802E
S2140027D009B030BD2124F7E72802480218F04CBBA8
S2140027E0024BD3F8A83003B1184770476026002084
S2140027F02DE9F04F0F46ADF50F7D0B93BDF8603217
S2140028000D920C93BDF8643238220A939DF870320C
S214002810002121A8DDF86CB20E9337F09EF9022F46
S21400282077D10A98FFF78EFD0128814671D1584668
S2140028300DF1520215A91BF0F3FF0546002868D0DB
S2140028404FF6FF73BDF85280984562D1DFF80CA3AF
S214002850DAF8143383B10020BF4A528A90420BD272
S214002860198B0A9CA14258D1598B0C9CA14254D179
S21400287041F244011EF0B2FC584637F00DFD461BEF
S214002880B6B21B2E45D83146BDF8540016F0BCF93A
S21400289000283ED01AAC2B4632465946204637F022
S2140028A07BFC48F24D03BDF854509D4207D82B04DC
S2140028B036D4012D40F2A381032D00F04F839DF8FE
S2140028C0B830DA0702D526A8FFF78AFFBDF894309D
S2140028D0C3B10DF18602CDE90532BDF884309F48BC
S2140028E00493FF2303930E9B0C9A43F00103029379
S2140028F00B9B0A9901930D9B0093D0F8600102236D
S21400290025F0D7FB9DF8B8309B0702D5002016F0BF
S214002910C8FF0DF50F7DBDE8F08F013050339DE701
S214002920A5F500424D2ACAD801A353F822F000BFED
S214002930FF2B0000CF2D0000BF280000BF2800009E
S214002940BF280000BF280000BF280000BF280000E6
S21400295015310000F5310000F5310000BF280000F9
S2140029606132000061320000BF280000C132000062
S214002970C1320000BF2800003933000039330000A0
S214002980BF2800008333000083330000BF28000008
S214002990892E0000BF280000892E00002F3400007A
S2140029A02F3400002F3400002F340000BF28000012
S2140029B02F3400002F3400002F3400009F39000011
S2140029C09F390000BF280000F1390000F1390000EF
S2140029D0BF280000A1380000BF280000A138000072
S2140029E0BF2800006F3A0000BF280000BF28000084
S2140029F0BF280000BF280000BF280000BF28000036
S214002A00BF280000BF280000BF280000BF28000025
S214002A108F3A00008F3A00009D3B00009D3B00006F
S214002A20BF280000BB3C0000BF280000BB3C0000E5
S214002A30692A0000692A0000992B0000BF280000C0
S214002A40BF280000692A0000633E0000633E0000C5
S214002A50BF280000E73E0000BF280000C53D00007C
S214002A60BF280000C53D000048F240039D4226886E
S214002A7030D1B6F5805F59D2002130460DF16A029A
S214002A8021F080F80746C0B140F2035398427DD04B
S214002A9040F2015398427BD009238DF88630237884
S214002AA048F244028DF887306378ADF884208DF8BC
S214002AB088300323ADF8943001E7012132460846FA
S214002AC025F0ACFF0023324619463846FEF778F864
S214002AD00023E2E748F241039D4210D10B9BB3422C
S214002AE058D0B6F5805F21D2314600201CF0C8FCD5
S214002AF040F202539842E5D00028E3D0CCE7B6F582
S214002B00805F13D2154BD3F8A4300BB90B23C4E760
S214002B103146002016AA1CF004FF48B140F20353C9
S214002B209842B9D040F202539842EFD10423B4E75A
S214002B309DF85A30012BE9D830460DF16A011DF098
S214002B4036F8054660B140F203539842A4D040F2EE
S214002B5002539842E9E700BFD0250020A81B0020BA
S214002B60304624F0D1FC304624F0EEFC31462846B0
S214002B701BF0F6FA0028D1D102232FA88DF8BC301E
S214002B80ADF8BE6001271CF0D9FA9BE7052384E761
S214002B90062382E70C2380E700273D46A64CD4F8A0
S214002BA0A8301E68B74217D12FABCDE9055348F2BF
S214002BB0430EFF23CDE9033E0E9B0C9A43F0010320
S214002BC002930B9B0A9901930D9B0093D4F8600126
S214002BD0022325F06EFA72E63946002016AA20F087
S214002BE049FD50B94FF4BD733946BDF858002FAAB9
S214002BF015F0EAFF0028D7D005460137D2E76678F9
S214002C002778330203F470631F43A378360946EA35
S214002C100316002D64D1884BD3F8A430002B4FD078
S214002C2038460DF151011CF06BFB0346002842D1DB
S214002C30012239461CF05AFE00BB01237F4A13448A
S214002C4093F8200148F20303ADF8843023788DF81A
S214002C5086008DF8873063788DF88830A3788DF8F5
S214002C60893048B91DB1012D14BF022001203B4612
S214002C7032460121FDF7A4FF04231BE730460DF181
S214002C8056011CF027FB18B9BDF85630BB42D4D10C
S214002C90002331468DF85830009301200DF16B0368
S214002CA016AAADF85A701DF0E0FE034650B140F289
S214002CB00342904232D06FF4A06C6344022BBDD91D
S214002CC00920BFE730461CF0D2FA0523ADF8BE60F7
S214002CD08DF8BC30ADF8C0702FA81CF02FFA1DE0A0
S214002CE0B5F5004F39464FF000001BD11CF0E0FA56
S214002CF0002868D1314601201CF0DAFA70B9304657
S214002D002FA91CF0E7FA58B9BDF8BC30BB4207D172
S214002D10314601201CF0B4FB0028D1D1002091E7F9
S214002D200C208FE71CF0C4FA00284CD13146012055
S214002D301CF0BEFA00283AD130460DF156011CF0C0
S214002D40C9FA002841D1BDF85630BB423DD13A4BB6
S214002D50D3F8A430ABB33146012016AA1CF0E1FD2F
S214002D60E8B9BDF85A1016AA1CF0DBFD08BB9DF8A2
S214002D705A30012B25D130460DF16B011DF014FEA3
S214002D80B8B9304624F0D0FB314601201BF0E8F9F4
S214002D9078B90723ADF8BE608DF8BC309CE740F2EA
S214002DA0035290428CD040F20252904209D1032046
S214002DB048E740F20353984282D040F202539842CA
S214002DC0F4E70B203EE704203CE711203AE7B4F88E
S214002DD00080002041461CF06BFA0546002850D1C2
S214002DE006460746144BD3F8A830D3F808904E454D
S214002DF026D1002016AB22888DF8580006930320B3
S214002E0048F20203CDE90430FF2303930E9BADF88E
S214002E10592043F0010302930B9B2FAA01930D9BAD
S214002E20CDE90772009302230C9A0A99DAF860013A
S214002E3025F0D4F843E500BFA81B0020E4200400DA
S214002E403146012016AA20F015FCC0B9BDF858007E
S214002E500DF156011CF03EFA88B9BDF856304345D0
S214002E600DD140F277132946BDF858002FAA05F178
S214002E70010B15F0A9FE0028BCD05D4687B20136CE
S214002E80B5E700270420B5E748F218039D420CBFBB
S214002E9002231723F61A34F80390B6B2022E3246EF
S214002EA004EB030124A81CBFC846B1F802903BF00F
S214002EB09DFEB4F800A006F10A025046ADF8942034
S214002EC0ADF887A0FFF73EFA0128064640F01C81C1
S214002ED0504619F013FF002854D04FF6FF7398455C
S214002EE03ED1494617F0ECFD0746002800F00E815B
S214002EF048F2180390F800B09D424FEA4B0B0BF0D7
S214002F00020B32D1BBF1000F3BD02FA919F04EFFB8
S214002F10002840F0F580BDF8BC30ADF88930DBB154
S214002F20BDF8CE309DF8D3208DF88B30D107C3F393
S214002F3003238DF88C3044BF43F010038DF88C309B
S214002F409DF8D0308DF88D309DF8D1308DF88E30CC
S214002F509DF8D2308DF88F30002613E0092399E7CC
S214002F604A46414617F0FAFDBEE7032D40F08A8038
S214002F70162200210DF1BE0036F0EFFDBBF1000F6A
S214002F8007D1072648F219038DF88660ADF884301D
S214002F9095E4BDF86A00ADF8BC0080BB384625F065
S214002FA029FEBDF8BC309DF8D320ADF88930BDF8B9
S214002FB0CE30D6078DF88B30C3F303238DF88C30D4
S214002FC044BF43F010038DF88C309DF8D030B948DC
S214002FD08DF88D309DF8D1308DF88E309DF8D2303A
S214002FE08DF88F3025F079FF0028B5D00123A0F8A2
S214002FF005A00371A0F80780A0F80990ACE7FFF7DA
S214003000A1F90228BED0002110220DF1BE0036F034
S214003010A4FD9DF86D309DF86C101B0203F47063E0
S21400302019430120ADF8CE101CF042F900283ED11D
S2140030309DF86D209DF8D330121162F30003DA0775
S2140030408DF8D33003D517F089FB03075AD59DF8C2
S2140030506E308DF8D03083F080037E2B58D99DF8E3
S2140030606F308DF8D1309DF870308DF8D2303846FC
S2140030702FA919F07DFF41F20333984217D000289C
S2140030808FD03DE0182200212FA836F066FDBBF158
S214003090000F3FF476AFE37CA17C1B0203F4706361
S2140030A019430120ADF8CE101CF002F908B1032632
S2140030B068E7E37C9DF8D3201B1163F30002237DB1
S2140030C08DF8D3208DF8D03083F080037E2B1FD967
S2140030D00DF1BE021046637D0DF17A018DF8D130F8
S2140030E0A37D8DF8D2300DF16A0353F8044B8B4262
S2140030F042F8044BF9D12FA91DF034FB0028B6D0B6
S21400310009263FE70A263DE701263BE7022639E780
S2140031100023CFE40023207816932F9317F09AFF0E
S21400312080280DF156050446287032D021D8012893
S2140031302FD9022839D00024FF22169B0392089329
S2140031402F9B0E9ACDE906530223012542F0010279
S21400315002920B9ACDE9043501920D9A0A990092D3
S214003160DAF860010C9A24F039FF002C35D1FFF70D
S214003170A6BB00F17F03DBB2012BDCD880F0800019
S21400318017F05AFF00283FF49AAB81684268169100
S21400319006E02FAA16A9204625F017FC2F9A1699A6
S2140031A0204617F0E7FE2F90C5E740F2076140F291
S2140031B00460FDF759FE2F900028BCD0FDF7ABFC4D
S2140031C00346169000283FF47AAB40F2076140F2BF
S2140031D004602FAAFDF760FE20B1169808F036FDB1
S2140031E0FFF76DBB2F9A1699287817F0C3FE0124B7
S2140031F02F90A1E748F20A039D422FD12678012E90
S2140032003FF65DAB2C4B002483F8726117F0AEFAE4
S21400321005462A4FFB889C421AD3FF2D3FF44FAB3E
S214003220002248F20B01ADF884100121224BADF8C4
S214003230941093F872318DF898208DF886308DF8BA
S2140032409C309DF8B8300B438DF8B830FFF737BB8D
S2140032502046314625F0FCFA0134DBE70722E0E79A
S21400326048F20D039D4222D12378012B3FF427AB71
S21400327018063FF524AB104A82F8703117F076FA3C
S214003280FF283FF41CAB48F20E02ADF88420012262
S214003290094BADF8942093F870318DF898908DF81E
S2140032A086308DF89C309DF8B8301343CCE74FF04D
S2140032B00809E8E7A8071409A81B0020D025002065
S2140032C048F210039D422FD12378022B3FF6F7AA2F
S2140032D0B84991F8742193422AD0022A27D0022BAB
S2140032E028D081F87431B1F8AD31C3F3800417F0FB
S2140032F03DFAFF283FF4E3AA48F21102ADF8842015
S2140033000122AC4BADF8942093F874318DF8987088
S2140033108DF886308DF89C3004FA02F313439DF83E
S214003320B82022F00302C0E700240927E4E7174686
S2140033300024E1E71F46FBE700232F9348F2130320
S2140033409D421CD120782FA920F0E2FEFF283FF4F2
S214003350B6AA032248F21401ADF884100121954B59
S214003360ADF8941093F873318DF898208DF8863068
S2140033708DF89C302F9B0B408B400B43CFE70A22E7
S214003380E8E748F2160300209D4226888DF858008C
S2140033903FD1A57831468DF858501BF089FFB0BB59
S2140033A030462FA91BF0ACFFA8B10925304616A958
S2140033B01BF0A6FF48F21703ADF8843023788DF88B
S2140033C086508DF8873063788DF888309DF85830B1
S2140033D08DF8893050E49DF8BC309D4203D023B967
S2140033E0032D7FF46CAA0025E0E7012B08D1022DFF
S2140033F009D1294630461BF0CBFF0028F3D0D4E78E
S214003400022B7FF45CAA032DF3D0FFF758BA0425ED
S214003410CCE731461BF04CFF0028F8D1304616A901
S2140034201BF06EFF051E18BF0125AD00BEE700238A
S214003430ADF85830238818460F93FEF783FF01280F
S21400344082467FF43CAAA2F11B03072B3FF637AA5D
S21400345001A252F823F000BF79340000793400004E
S214003460EF34000079340000BF280000AF340000BD
S214003470AF340000AF3400006288A788062E1046DE
S21400348016BF3E464646E788ADF85820FEF75AFF78
S2140034900138C0B201287FF612AA4FF6FD73013A32
S2140034A092B29A423FF60BAA4FF000090EE0678AE6
S2140034B0142E16A90DF16A0016BF3E464646A78A88
S2140034C01DF050F9002872D10DF16A090F9819F015
S2140034D015FC0346002800F0CB804FF6FF7296429C
S2140034E011D03A46314617F039FB044611E0042E57
S2140034F0678854D10F9819F001FC0346002800F0A5
S214003500B9814FF000093946184617F0D9FA4646F1
S2140035100446002C00F0B0812378990740F1AF8173
S21400352005F5FF4363339BB2012B45D948F22203CE
S2140035309D4237D048F21B039D4209D0012305F572
S214003540FF456435ADB2AB4013F0540500F0FD8482
S214003550BDF858301093FF2310982F93FEF7F2FE15
S214003560022882460BD1B9F1000F20D048462FA979
S21400357017F0A0FC002852D12F9825F056FB2046C5
S21400358015F062FD237805469A07DDF8BC8054D412
S214003590B8F1FF0F0BD0404625F01CFB07E03E4677
S2140035A0A78881E7204619F059FD0028D0D04FF0B3
S2140035B0090A5DE0A81B0020204619F04FFD0028F0
S2140035C0F5D1012305F5FF456435ADB2AB4013F0E8
S2140035D0540FBDD1AF4825F080FC40B102230371E3
S2140035E00F9BA0F80760A0F80530A0F8097048F215
S2140035F01F03ADF8843000238DF886300F9BADF89E
S2140036008730BDF85830ADF889304FF6FF739E42CC
S21400361040F038810723ADF88B70FFF74BBA484669
S2140036202FA917F069FC05460028A8D01A2D1DD032
S21400363040F203539D4219D0B9E75FFA88FB5A4619
S2140036402046109919F074FB30B1B8F1FF0FC1D0C5
S214003650404625F0BFFABDE78F4A9289AA4218D1A4
S214003660B8F1FF0F02D0404625F0B4FA4FF0050A35
S21400367048F21F03ADF884300F9BBDF858008DF854
S21400368086A0ADF88730FEF75DFE0228B9D100238C
S214003690B9E759461390109819F070FB129020461F
S2140036A015F0DAFC1190204615F0E4FCBAF1020F92
S2140036B0A8468146139B2ED1FF2300F805B02F9312
S2140036C0DDE9102323F8182023460135ADB21A464B
S2140036D0D3F83130002BFAD1A2F837502046D4F870
S2140036E03140002CFAD115F0E5FC05462F98FF284E
S2140036F001D025F06FFA002D98D1129B002B7FF495
S21400370069AF664B1B68002B3FF464AF01215B6911
S214003710109898475EE702469D429846934619D908
S2140037205A4612F8011B08F10103FF29F4D058008D
S2140037301393119BA5EB080A811E19444FEA4A020F
S21400374018443BF039FA139B5246594609EB0300DE
S2140037503BF032FAFF238BF80030B1E7FF23BDF8C9
S21400376058A02F935046FEF7EDFD022883461AD048
S2140037702378DDF8BC909B0720D5204615F06CFC1E
S2140037801090204615F076FC8046109B204611933C
S21400379015F05AFC8542119B16D3B9F1FF0F3FF482
S2140037A019AF484655E7B9F1000F3FF400AF484659
S2140037B02FA917F07FFB0028DAD00BE7B9F1FF0F2F
S2140037C03FF4F5AE4846E7E61A88524549D1BBF1C4
S2140037D0020F03D118F805204A4542D11099013846
S2140037E005F1010B421B01EB4B01184652003BF062
S2140037F0E3F9204615F028FCC344421B5946013A1B
S21400380008EB05003BF0D8F9204615F01DFC2346D2
S214003810013880B21A46D3F83130002BFAD1A2F81C
S21400382037009DF8BC10504619F0A8FA0546204609
S214003830D4F83140002CFAD115F03CFC04462F9801
S214003840FF2801D025F0C6F974B9002D7FF4C2AE6A
S214003850124B1B68002B3FF4BDAE012150469B69FE
S21400386057E70233013591E740F202539C427FF45A
S2140038709EAEAFE64646FBE64FF0020AF8E64FF08D
S214003880080AF5E6ADF88B60ADF88D700923FFF7F2
S21400389011B900BFA8071409D02500200026002073
S2140038A0228806F101091046FEF74CFD01288346E2
S2140038B01FFA89F90DF1BC0A65D1104619F01EFAF7
S2140038C0074628B348F229039D4261884DD117F078
S2140038D0F7F8804600285AD003789807C3F34007C5
S2140038E058D5404615F0B0FB0746002855D0BA28F4
S2140038F0A8BFBA27D3460021BFB2404616AB0DF18B
S21400390056020F9119F038FC0F9990B34FF0090B3F
S214003910324621460DF159008DF858B03BF066F955
S2140039200E9B48F2290048F22A0143F0010248F2B1
S2140039302C03854208BF0B460DF158087F00CDE9E1
S2140039400687CDF820A0CDF814900493FF23CDE988
S21400395002230B9BB94801930D9B0C9A00930A997E
S2140039600223D0F86001FFF763BAA28817F0F6F8D2
S214003970AFE7BDF8563001312BF8023B8BB29F42C1
S214003980BBD88346C4E74FF0010B0027C0E74FF0D3
S214003990020BFAE74FF0080BBAE78346B8E748F29F
S2140039A024039D42A54D21D1237885F8753116F064
S2140039B0DDFEFF283EF483AF042248F2250095F88A
S2140039C07531ADF88400D90803F007008DF886300D
S2140039D00123ADF894309DF8B8308DF898208DF816
S2140039E09C008DF89D1043F001032DE40B22E4E7C4
S2140039F000232F9348F227039D4236D16178207822
S214003A00CA082FAB01F0070120F057FBFF283EF451
S214003A1056AF062416AA0DF156010DF1510014F00A
S214003A2027FE48F228039DF856109DF85820ADF85A
S214003A30843001F0070343EAC2038DF8873002237F
S214003A40ADF894302F9B9DF8510003F001035B0006
S214003A508DF886008DF898408DF89C008DF89D10A6
S214003A608DF89E2043F0010359E40D24D2E7228806
S214003A701046FEF767FC01287EF421AF48F22E03BD
S214003A80ADF88620ADF884300523FFF713B814226E
S214003A9000212FA836F061F848F238039D4238D04E
S214003AA02188A378ADF8C61023B1FF2B29D14FF695
S214003AB0FF733293E378112B3EF601AF2279019221
S214003AC0B4F805200092B4F80700329A18F06EFF9A
S214003AD005465B4F2FAE0FCF0FC63B68042D3360F5
S214003AE019D103CC2378CDF887008DF88F300623C4
S214003AF0CDF88B10ADF884308DF886500A23FEF78B
S214003B00D9BF112B3EF6DBAE0122013B02FA03F3CE
S214003B10CFE70025DDE7BDF8C630ADF88730329B2D
S214003B207BB14FF6FF72934236D011220120114628
S214003B30013A00FA02F4A34202D2002AF7D1114653
S214003B40CBB24FF6FF728DF889309DF8CC308DF8E9
S214003B508A309DF8CF308DF88B30339BC3F30F231C
S214003B60ADF88C30BDF8C430934208BF0023FF2D5B
S214003B70ADF88E303EF4A3AE0623ADF884300A23AB
S214003B808DF88650ADF89430002D7EF498AE012066
S214003B9015F087FEFEF793BEFF23D2E7274B1222CF
S214003BA000212FA8D3F8686135F0D7FF48F23A0312
S214003BB09D4247D101212FA814F06CFDBDF8C430FA
S214003BC013B1BDF8C6303BB900233193ADF8C83009
S214003BD08DF8CB30ADF8CC304FF00008BDF8C430CF
S214003BE08DF88680ADF88730BDF8C630ADF88930E0
S214003BF09DF8CB308DF88B30BDF8C8307BB14FF6D2
S214003C00FF72934257D0112201201146013A00FA62
S214003C1002F4A34202D2002AF7D11146CBB28DF8A5
S214003C208C3048F23C03ADF884309DF8CC308DF8EB
S214003C308D309DF8CD308DF88E3027E6A81B0020FD
S214003C40441D002094F80480B8F1110F3EF637AEFC
S214003C50258867881DB117B1B8F1000F0ED1002175
S214003C602FA814F017FD00214246084624F05EFBFC
S214003C708046D8B931908DF8CB00ADE7424639463C
S214003C80284624F053FB804600212FA814F002FD9E
S214003C90B8F1000F0AD19DF8CB30002B9CD0002E37
S214003CA09AD0394628462279B04795E7B8F1FF0FF3
S214003CB03EF405AE92E7FF23B1E7238818460F933C
S214003CC019F01CF81090002876D0B4F802A0012055
S214003CD051461BF0EDFA814600286FD1062EB4F847
S214003CE004B0109B1BD15946184616F0E9FE40B3A7
S214003CF05C46132C03D8994BE340D90760D448F2AE
S214003D003D039D42B0F8352000F137034DD1914573
S214003D1012D3934B5B89934227D1092711E0E4889D
S214003D2059462246184616F019FF50B14FF6FF7353
S214003D309B45DED0D846E2E733F8021F514511D145
S214003D40002748F23E0332461AA90DF187000136D5
S214003D50ADF884308DF886703AF048FFADF8946080
S214003D60FEF7ADBD09F10109D1E7531C00EB420295
S214003D70A0F83530A2F839A015F09CF90028CCD16F
S214003D80784825F0AAF80028DAD0002303710F9BA4
S214003D90A0F80780A0F80530A0F80940D0E733F86F
S214003DA0021F514504D009F101099145F7D3C7D048
S214003DB0514615F081FCE1E70127C2E70327C0E77B
S214003DC00D27BEE7208818F099FF06F1010A07467E
S214003DD01FFA8AFA98B148F24B039D4261882AD1AD
S214003DE016F06EFE8046002837D000210F4600F100
S214003DF03709B8F83530994221D34FF000093246DA
S214003E0021460DF159008DF858903AF0EFFE0E9BC2
S214003E1048F24C0148F24B0043F0010248F24E03D0
S214003E200DF15808854208BF0B462FA9CDE907714A
S214003E30CDE905A889E5A28816F090FED2E740F203
S214003E40751339F8020F2FAA01F1010B14F0BCFE0E
S214003E500028D2D0594687B2CBE74FF00209074672
S214003E60CDE748F246039D4226882CD130462FA93E
S214003E7016F0E6FCFF283EF422AD0C2304289DF83D
S214003E80BC2010D00E280ED009280CD000208DF8AB
S214003E9098309DF8B830ADF89C6043F001038DF87B
S214003EA09E208DF8B83048F24803ADF88430237869
S214003EB08DF886008DF8873063788DF889208DF828
S214003EC08830FEF7D9BEA17830468DF8BC1014F0C5
S214003ED0B4FBFF2805D130462FA916F0B1FCFEF73B
S214003EE0EEBC0523CAE700244FF495432146ADF8FF
S214003EF058302046022316AA2F9436F019FC2F902D
S214003F0000283EF4DCACFF2306930E9BCDE9084464
S214003F10CDE90403CDE902440C9B07940093019479
S214003F200220DDE90A32DAF860410D99A04710B1A7
S214003F302FA836F03BF9FCF7C9FB0022002300212E
S214003F400620FCF709FEFEF7BABC13F0210F7FF43B
S214003F5005AC4FF0100AFFF78BBB00BF33FC0C001C
S214003F60D0250020A807140902207047F0B5164C8B
S214003F70E5880024AC4212D31BD1D3B10024AC4256
S214003F8017D21346B3F900600232002E19DBC1F3D4
S214003F900B016FEA41416FEA5141198009E032F99D
S214003FA0147032F81460002F09DAC6F30B068E423E
S214003FB005D10460AC420CBF1A200020F0BD0134CD
S214003FC0D8E70134DBE700BFD0250020102230B54B
S214003FD08DB0012104460DEB020035F0BEFD05F064
S214003FE0A1FFCDE902010020FF2101AB04AA019048
S214003FF022F0E6FA98B90822019808AB0DEB020108
S21400400022F01BFD58B9234608AD0CAC2A4603CA5D
S214004010A24218605960154603F10803F6D101A8BC
S21400402022F05AFB102108A83AF0B3FE0DB030BDBE
S2140040302DE9F04700248CB0149ECDE90844CDE964
S2140040400A44CDE9044406948DF81C40341D82468B
S2140040502046894690461F46FCF76EFD054600281A
S21400406042D041465046FCF7C3FB22462946FCF7A1
S2140040707DFE0446E0B908A8FFF7A8FF8DF81040BB
S2140040808DF811908DF812800394C6B9212403A8E8
S21400409022F022FB102108A83AF07BFE0D2104A88E
S2140040A03AF077FE24B93246294638463AF09EFD65
S2140040B0284607F0CBFD20460CB0BDE8F08720462A
S2140040C0042103AB08AA22F07BFA04460028DED1BE
S2140040D003980028DAD0AB1900932A46334604A981
S2140040E023F068F80446D2E71924E4E707B50093FE
S2140040F013460A460146FFF79BFF03B05DF804FB34
S21400410070B50446FCF774FB0D461646FCF770FEC9
S214004110042806D932462946031F2046BDE87040CB
S214004120E4E72D2070BD2DE9F047002403F10409D3
S2140041308CB007464846884692461E46CDE9084457
S214004140CDE90A44CDE9044406948DF81C40FCF7FA
S214004150F3FC0546002848D032465146BAF1000F17
S2140041603ED03AF043FD08A8FFF730FF00200421B8
S21400417003AB08AA8DF810008DF811708DF8128028
S214004180039022F01DFA044640B9AB1900932A4664
S2140041903346039804A923F077F8044603A822F0D0
S2140041A09BFA102108A83AF0F4FD0D2104A83AF075
S2140041B0F0FD74B9B9F5805F15D841463846FCF76E
S2140041C017FB2A4640F480214B46094804F0F6FFC8
S2140041D00446284607F03AFD20460CB0BDE8F087B6
S2140041E035F0BBFCBFE71D24F3E71924F4E700BF56
S2140041F0881500202DE9F74F914281460D46174657
S2140042001C460C9E10D8B3420ED839B974B9AF42CA
S21400421022D10021084603B0BDE8F08F9142F5D0C8
S214004220002BF4D0B342F2D00F21F3E7B442EED025
S214004230301DFCF781FC054690B34FF00008A6EB56
S214004240040A00EB040B474511D1002128460191D2
S21400425007F0FCFC0199DDE7294633460022484674
S214004260FFF761FF01460028D4D10135CFE741466C
S21400427023462A464846FFF739FF01460028E5D17F
S2140042805246584635F069FC414633462A4648466B
S214004290FFF749FF01460028D8D108F10108D2E708
S2140042A01921B7E770B50446FCF7A2FA0D46164684
S2140042B0FCF79EFD042809D9031FB3F5805F07D8D5
S2140042C0324629462046BDE870402CE72D2070BDBA
S2140042D01D20FCE72DE9F04FD5B02022002120A8B4
S2140042E035F03BFC784B1B78002B41F0BD83774FB5
S2140042F097F8AC3053B9012087F8AC00FCF7FBFB0D
S2140043007349024607F1240035F0F0FA17AE102282
S214004310314642F23000FCF729FD002800F0C88044
S21400432005F000FE30AD04460B46A846694A02F189
S214004330100EAC46106851680832ACE803007245AF
S2140043406546F6D11A0E8DF8D0201A0C8DF8D120BD
S21400435024BA1A0A8DF8D2208DF8D33035940AF094
S21400436093FE1FF084FA054630B91B906C20FCF7CC
S214004370D2FB0446F8B91A25574A1BAC334603CB82
S214004380A342106051601E4602F10802F6D15DB9E4
S2140043900023CDE917331993D7F8B03013F0010393
S2140043A00A9300F09F8012254C48FDF74BF9858054
S2140043B055B0BDE8F08F0168F1B96822043035F0D9
S2140043C0CCFB02232371464B04F10C0203F11401CB
S2140043D053F8040B8B4242F8040BF9D10623002055
S2140043E023601FF044FA054658B1204624F0CDFD60
S2140043F0204607F02BFCBFE724F0C7FD6FF08800CF
S214004400EFE72368062B4AD118224146201D09F003
S214004410BBFE054610B1204624F0B7FD28461FF027
S21400442026FA05460028E0D123680DF16C08002B1B
S2140044303BD0062B36D14346142228A9201D09F06E
S21400444049FF0546204624F0A0FD28461FF00FFA37
S2140044500546204624F099FD204607F0F7FB002D80
S2140044608AD144460DF1A00CBCE80F000FC4DCF85E
S2140044700030236098E80F0086E80F009DF8633050
S21400448003F00F0343F050038DF863309DF864305B
S21400449003F03F0363F07F038DF864306CE76FF042
S2140044A08805B8E76FF08805CCE76FF08805CCE79D
S2140044B0094A1BAC334603CBA342106051601E462C
S2140044C002F10802F6D163E7981B00206026002060
S2140044D0895A0000D2200400243B00202802140041
S2140044E007220400AE4DAF4C0FCC0FC50FCC0FC546
S2140044F094E8070097F8B43085E80700A4F1200890
S214004500203D0BB11AF092F826220021A64835F07D
S21400451024FB012387F8B430BB6B002B40F0A88047
S214004520A24823F019F80446002840F0A980A04EBF
S214004530A04AD6F8A830CDE90E00DA629E4ACDE948
S21400454010001A639D4ACDE912005A63802386F84C
S214004550283395F824301490002B00F0EA8095F864
S2140045602520002A00F0E5803278002A40F0A58356
S2140045701A205843FCF7AEFAC6F88000002800F070
S2140045809180E88A00287FD195F82600002840F020
S2140045908D80DFF830E28A4CAEF14103CDE9213858
S2140045A001238DF897300323AEF11108CDF880E093
S2140045B0CDF89080ADF89C300DF1800CBCE80F0073
S2140045C00FC49CE80F0084E80F00002386F85C30D8
S2140045D087F8DC304346303C0EF1FF3E2246186832
S2140045E05968083303C273451446F7D100200FAA52
S2140045F00EA91FF077FC0446002841D111AA10A985
S21400460001201FF06FFC022013AA12A91FF06AFCFB
S214004610139810B107F01AFB1394F821F520FCF755
S21400462023FC14900446002016F03CFD074668B1B3
S21400463064B9D0E90123B2F57E7F7AD8F821F52057
S214004640FCF754FC0446D8B97B6814931498C0B39E
S214004650FCF740FA074638B30346F821F52014AABB
S214004660FCF71AFC044668B3384607F0EFFA07E092
S2140046709847044600283FF453AF0F283FF450AF46
S214004680122C40F0FB818EE60001FCF723FAC6F8F8
S214004690880038B1E88AFCF71DFAC6F88C000028B6
S2140046A07FF472AF17F092FE1A24E7E100EB4000A9
S2140046B08000FCF70FFAC6F8840000287FF469AF84
S2140046C0F0E707460020119B0146F360109B4FF071
S2140046D00208C6E904370A270F9CDDF838C0149B89
S2140046E07460C6F808C0B361BC4524D895F8243079
S2140046F099421CD895F82530984218D8B9B1B0B16F
S21400470000220A2090464FF0020CD6F88030B163A3
S2140047101A60B36807920293D6F88030029A9042E5
S21400472021D395F82500D6F8048000284CD117F040
S2140047304DFE2124A2E1ACEB0709B9F1030F40F2CC
S2140047407086E219937892F803E09A1C18FB0E2202
S214004750B9EB420F4FEA420AC0F0638673445744EF
S21400476018440131C0E722181A6083F8048083F8E1
S21400477005809178079FD27801EB070EC3F81210D8
S2140047800231C3F81620C3F80A7002EB0E071CFBB2
S2140047900212C3F80EE0079700EB42001A33BDE79B
S2140047A0D0250020282204001627002051E0010012
S2140047B0A81B0020C5E50100D5E50100E7E50100DE
S2140047C0E41B0020353B0020079B8342AFD8D6F879
S2140047D09442002C40F06F82B36B6A890693AB89D3
S2140047E003EB430303EB420339339BB25843A6F86B
S2140047F09C32FCF76FF9C6F89402002800F08F840C
S214004800A3460A264FF0020A029BB34204D84FF092
S2140048100008924D00243CE0B71C18F8075008EB3F
S214004820060393F80390AB1C1AFB09335B00049352
S214004830331D05932B1947440393039BA3420DD1C5
S214004840059BA1441AFB053545444C4505F1040576
S2140048500ED1049B0BF1010B1E44D5E720464FF604
S214004860FF72594637F8023F14F066FE0134E4E75B
S2140048702046594635F8023C35F8042C14F05CFE08
S2140048800134E2E7204629881FF07AFB002873D11E
S2140048900134069B9C42F5D108F10108B8F1100FCF
S2140048A005F11605B6D100230893DDE907329342D9
S2140048B07CD16B4DD5F8A8301B68002B40F03384B4
S2140048C001232B700024012085F868402C66FCF735
S2140048D0C1FA0346002800F031842146012030AAA0
S2140048E0FFF70EFC0446002840F06D839DF8C030AC
S2140048F00DF1C10003F0010385F8683016F07AFE6A
S214004900286600264FF003093746D5F83880DFF8CA
S21400491054A1B04540F031840520FCF79BFA0346CD
S214004920002800F0AC8400210520FBF761FFFCF7AF
S2140049305FFAAB6B002B3FF4FAAE4FF4A850FCF7CF
S21400494057FA0428044640F2C28405283FF4EFAE26
S214004950FCF7F2F80746002800F08D800246231F79
S21400496000210520FFF7C2FB0446002800F09B84C8
S214004970384607F06BF926E3204669881FF000FBEF
S2140049800746002884D02E464FF0000916F804AFDC
S214004990D145BFF47DAF204636F8021F1FF0F0FA6F
S2140049A008B1C0F8317009F10109F1E7089814F070
S2140049B041FB02780646900702F0040107D533460D
S2140049C01846D3F83130002BFAD1864202D009B906
S2140049D0D10737D530AF71883B46B28870781EF065
S2140049E0D1FE0146002840F092831822384635F062
S2140049F0B4F84FF6FF7372889A4240F0C08035785C
S214004A00690005F0040301F0020215F00205C1F387
S214004A104001049119D035462946D5F83150002D6D
S214004A20FAD18E4208D10F49C88A002B40F0AB80DD
S214004A30D2B103930123A4E0002B40F04081002A6A
S214004A4040F04181089B01332EE7002B40F0378170
S214004A50002AF7D01D460393059336E1542204003E
S214004A60A81B0020D0250020FCF755F8002840F0B1
S214004A702F8114F005FE17F0A9FC19249D4DD5F8DA
S214004A80B030DB0705D549F2010105F124003AF004
S214004A90ECF80021D5F8B030974F23F001030E2232
S214004AA09648C5F8B030C5F8001135F056F8D7F876
S214004AB0E03003B198471C220021914835F04DF8AC
S214004AC0D5F8880020B107F0C1F80023C5F8883073
S214004AD0D5F8F43003B19847D5F8F83003B19847C5
S214004AE0D5F8F03003B19847D7F83C31002B40F0AA
S214004AF04B87D7F83C01002840F04C870026C7F8C3
S214004B0038611CF09DFB142231467E4835F025F8AE
S214004B10D7F8440108B107F099F87B4BC3E9006663
S214004B209E6019F011FED7F8E80008B107F08EF87D
S214004B3018220021754835F010F8D7F8B40208B1ED
S214004B4007F084F810220021714835F006F81BF0B3
S214004B507FF8AB6B43B114F0D3F80023C5E94233BA
S214004B6085F80431C5F8E03019F060FD17F02EFC2A
S214004B700023C5E93C33C5F8F830254614E4012384
S214004B800393049301E001230393624BD88AFBF757
S214004B90C2FF054600283FF46CAF01230593049B33
S214004BA0002B08BF0027304614F056FA594B0990E0
S214004BB05A8970780B929A89DB8A0C920D93B28888
S214004BC0718815AB1EF0DEFD0290002840F01582BD
S214004BD04FF4C020BDF8541016AAFCF7D9F802907E
S214004BE0002840F00A82DDF858A0BAF1050F5BD91C
S214004BF05046FBF7A1FF0446002800F0F881014666
S214004C005246BDF85400FCF7D3F80290002840F056
S214004C10D181237813F0010F14BF4FF006084FF030
S214004C2004089A07069377D5AAEB0803062B3AD909
S214004C30069B08F1070B03F00409002F4FD008F17C
S214004C400101635C14F808201B0203F470631A4326
S214004C507A82635CF97D1B1163F30001F975A04449
S214004C6098F8031098F8023043EA01234FF6FF71D4
S214004C70002B08BF0A463B807A8298F8043001462B
S214004C803B7598F8053010227B7598F80630B81CEE
S214004C90BB7534F062FFB9F1000F48D0AAEB0B03E6
S214004CA00F2B00F21481204606F0D0FF284606F0AF
S214004CB0CDFF14F0E5FC17F089FB0224DEE60123A5
S214004CC0059503936BE703950595012304936AE71F
S214004CD001232F46039504950593054663E7B9F12E
S214004CE0000F24D0AAEB0B030F2BDCD90BF1100B13
S214004CF01DE000BF60260020A81B0020383B0020D7
S214004D00741C0020481E0020E81C0020901C002078
S214004D105C1E0020D0250020069B03F00409002F0F
S214004D2040F0BB80B9F1000F40F0B080C346069B50
S214004D3013F0080923D0AAEB0B03012BB3D904EB1D
S214004D400B035B7814F80B900BF1020C49EA03296D
S214004D5009EB490319F0010F18BF01335B08AAEBF2
S214004D600C029A429FD30B9A4A45C0F0BC8032464A
S214004D7061460020814500F2C2800CEB030B069BC7
S214004D8013F010081AD0AAEB0B03012B8BD904EBF7
S214004D900B02537814F80B8048EA03280BF1020341
S214004DA0AAEB0301B1EB480F4FEA480EFFF47BAFC6
S214004DB00999002940F0C68003EB0E0B069B13F002
S214004DC0200729D0AAEB0B03012B7FF66CAF04EB70
S214004DD00B02537814F80B7047EA03270BF1020313
S214004DE009933B010C93099BAAEB0303B3EB071F44
S214004DF0FFF459AF65B10D9BBB42C0F0E880934607
S214004E007B1906950B930B9B069A934240F0AC8059
S214004E10099B0C9A13449B4604EB0B02DA4500F2FE
S214004E20D880204606F012FF039B002B00F0E78098
S214004E30C04A5389994559D8059B002B00F001813B
S214004E40928908EB0703934250D8A6F83590049B46
S214004E50002B40F0E380304614F0FEF881463046E2
S214004E6014F008F942468246FF2134F076FE0AEB3B
S214004E70080B09EB4809029BBB4240F0318198447D
S214004E80A6F83780284606F0E1FEDBE5AAEB080325
S214004E900F2B7FF608AFC34628E7029B10223B8005
S214004EA04FF6FF737B827B69029903F07E4343F0E3
S214004EB0FF037B61B81C34F050FEB9F1000F3FF4DD
S214004EC035AFAAEB08030F2B7FF6EDAEC34604EB17
S214004ED00B03023703F1100253F8041B934247F802
S214004EE0041BF9D102E7204606F0B0FE284606F07D
S214004EF0ADFE1D2414F0C4FB17F068FABEE501F100
S214004F00010814F808E0675C4FEA0E2E0EF4706E87
S214004F1000F1010B47EA0E07CB4501F1020EA2F89D
S214004F2039700BD214F80E7014F808E04FEA1E1E03
S214004F304EEA071EA2F83BE001F1030E714602306E
S214004F40043217E70C994145CDD3002188453FF43C
S214004F5033AF92F803C012F8020F099F40EA0C2004
S214004F6027F811000131F1E70BF102030DF1A00C57
S214004F700BF1120E624618685968083303C273456F
S214004F809446F7D11BA928A815F094FF50B91B9892
S214004F9023F04BFE069A1B9B0BF1100B02F8013B0D
S214004FA0069230E71BA928A815F0A6FF034600289E
S214004FB0F0D00293204606F049FE284606F046FE4C
S214004FC0029C14F05DFB17F001FAFFF759BB1D2396
S214004FD0EFE712F8013B0BF1010B002B3FF41EAF7D
S214004FE0AAEB0B029A42FFF45EAE9B4414E706F06F
S214004FF02DFE284606F02AFE3BE50020DBE7059B53
S21400500053B34C4A08EB0703928993423FF66EAFC0
S214005010039B86F8353086F8363018E7FF23BDF850
S214005020C0002893FDF78EF902281BD128A90DF1A0
S214005030C20015F03FFF0446A0B1284606F006FE63
S214005040BFE7A6F83590049B002BE7D1002386F82F
S214005050373086F8383015E7059B86F8353086F801
S2140050603630F0E7BDF8C0309DF8A000F380BDF8FC
S214005070D230B17BA6F809309DF8D430F3729DF893
S214005080D52032739DF8D63073739DF8D7303072C2
S214005090C3F3000363F30001B173E2B11BA902205E
S2140050A034F0DCFCBDF86C10234BC1F30801186823
S2140050B014314FF47A720023A1FB000134F05EF83D
S2140050C0894604463AF020FB001941EB0901C6F870
S2140050D00F00C6F81310059B002B7FF4BCAEB5E797
S2140050E0029B28A9EB5C0BF8013B029B1AF8030015
S2140050F0FDF774FB494628A81BF034FB09F10209AA
S2140051000446002899D1029B01330293B3E6304649
S21400511013F0D0FF044600283FF494AC51E714F097
S214005120AFFAFFF7BFBA04232B70FBF7BFFD286763
S214005130FFF7C8BBD025002080160020BA4A0146DB
S214005140A2F8B8000522009201221046FFF752F896
S214005150044600287FF437AF01468DF8C0000DF1F5
S214005160C10014F03BFC2146012030AAFFF79AF854
S214005170044600283FF4C5AB25E7AB6B9E423FF6DE
S214005180D6AA5FFA86FB0BF5A06B59464FF4C020F3
S21400519030AACDF858908DF8A070FBF7F9FD0446BC
S2140051A068B32D287FF40FAF002017F0B3F98642BE
S2140051B039D34FF01A0B0BFB06FBD5F88030304680
S2140051C05B44D3F8061019F03FFA044600287FF433
S2140051D0FAAE0122D5F880300A925B449871D871F5
S2140051E018725872D3F80620B2F1807F04D30122D9
S2140051F09F71DF711F725A720136FFF78ABB309BB0
S214005200032B7FF494AA59464FF4C02016AB28AA65
S214005210FBF784FD2D280446C6D028A814F0E6FB2C
S2140052208346B4B1CFE63146002030AAFEF768FFC9
S2140052300028BED130A814F0D9FB0146834630467C
S21400524019F002FA4FF48033012030A9309323F08E
S21400525017FD1A22D5F8803002FB06330A9AC3F8E7
S21400526006B0002ABED12A78012ABBD0DAF8002080
S214005270934452420BEA020BC3F806B0B2E76A4AFE
S2140052800146A2F8C0000222052000920122FEF785
S214005290B1FF044600287FF496AE014619F0EEF9F9
S2140052A0044630B18FE638463C8806F0CFFC64BA38
S2140052B0A4B200231A20D5F880109E420CD1D5F84F
S2140052C0A4309BB917F082F81124FFF7D7BB17F06C
S2140052D07DF82D24FFF7D2BB34B1E21892B200FB62
S2140052E003170133BA80E8E72246F8E700214F4A61
S2140052F031A81A611A22309134F02FFC1D231BA905
S21400530030A81B931EF05CFF002876D0464F484E10
S214005310D7F8E030F3B1FBF7CFFE78B196F823303C
S21400532063B1FBF7C9FEC7F8E40000B24001FBF723
S214005330D1FBC7F8E80008B9C7F8E4002B78042BBF
S2140053400ED195F87321D7F8E030012A94BF0120DA
S214005350002098472B78042B02D1012023F0F6FC7E
S2140053600024F089AC8500283FF4E3A9C000FBF7D1
S214005370B1FBC5F8B40200283FF496A9F388C5F837
S214005380B842002B3FF4D5A917205843FBF7A2FBE1
S214005390C5F8E80000283FF487A9338AC5F8EC4032
S2140053A0002B3FF4C6A9D5F8CC0208B106F04EFC97
S2140053B0308A00EB0010FBF78DFBC5F8CC02002806
S2140053C03FF472A900230C20C5F8D032FBF742FD4B
S2140053D0034678BB318A902011F00F0218BF0122D5
S2140053E0009002EB11120C201946FEF703FF04464C
S2140053F000B319F0A9F9FFF743B91B99002985D026
S21400540028AA30A81AF0D8FD00287FF47FAF289B82
S21400541010212B63012328A885F8343039F0B9FC15
S21400542074E72124CFE500BF6026002051CE01009E
S214005430D02500209022002130A834F08EFB1122C7
S21400544000211BA834F089FB338A13F00F0218BF23
S214005450012202EB13120292D5F8D022934240F2B8
S21400546000814FF0000BD846029B5B4569D10024B3
S2140054702022002128A834F070FB0E238DF8A030DF
S214005480029B28A8ADF8A480ADF8A6302A94FDF7B4
S214005490A7F9002CADD1D5F844A1BAF1000F40F021
S2140054A05C82FBF709FE062300FB0330FBF712FBCA
S2140054B0C5F8440100283FF4F7A80123CE4E047037
S2140054C0447014222146CD4885F8403185F848417D
S2140054D034F043FB96F84D30DFF8348385F8A0327D
S2140054E096F84E3085F8A132C54BC5F8AC32C54BA0
S2140054F0C5F8A832C44BC5F8A43214F00BFEB8F8B1
S2140055001490B9F1000F3FF414A9B8F81230002B2C
S2140055103FF40FA9B8F81030002B3FF40AA9442234
S2140055202146BA4834F019FB4FEA8910FBF7D2FA45
S214005530C5F81003002840F098801BF081FEFFF7A6
S214005540B3B859460C2030AAFEF7DAFDBDF8C030D5
S2140055500446002B8CD000288AD10DF1C30904EB39
S214005560C40303F5A8736B4433F890ACA3F1900121
S2140055701FFA8AF32E6E0393002B59D08B7806F011
S214005580010203F001039A424DD131460DF16E003F
S21400559014F024FAB9F8002099F80230ADF8A020EB
S2140055A08DF8A23028990DF1720014F027FA3146D2
S2140055B00DF1750014F012FA99F80530B9F80320C9
S2140055C08DF8A230ADF8A02028990DF1790014F0DE
S2140055D015FA0123ADF86CA08DF87C30D5E9B3A39D
S2140055E003EB03165644564528D10133C5F8D0328E
S2140055F01BAA0DF17C0C134603CB6345306071602B
S2140056001A4606F10806F6D11B7808F10108337031
S2140056101FFA88F87E4B1A8AD5F8D0329A4207D8F5
S2140056200BF1010B20E7112200211BA834F095FA9C
S2140056300134102C09F1090991D1F1E7BAF80020DC
S21400564003998A420AD107220AF102010DF16E007F
S214005650049339F0A1FA049B0028DBD00AF1110A62
S214005660C1E74FF000081A2402E75020B8F81230BD
S2140056705843FBF72FFAC5F8140300283FF45DAF34
S21400568021462246D5F81033B8F81400123381426A
S21400569003F14003C0F0E680B8F810000001FBF705
S2140056A019FAC5F8180300283FF447AF00229FED0B
S2140056B0507BB8F810309C4200F11000C0F0DE803D
S2140056C0544B554DDFF89491C5F8DC32534BDF212F
S2140056D0C9F8EC3000234FF4C0201BAA1B93FBF73D
S2140056E057FB002800F0D0804D4CDFF874C10FCC7B
S2140056F0ACE80F000FCCACE80F0094E80F008CE885
S2140057000F00002398F82200C5F81C3300283FF449
S21400571010A8D5F83C31002B00F01381414BC5F89A
S214005720383116F04FFF044600287EF4A9AF3E4BF2
S214005730C9F8F000C9E93D303C4B1793D9F8FC3066
S2140057400BB198478246012286F85A200322384B2E
S214005750A6F85C203093374B374A3193374BC5F861
S214005760CC20C7F800310023354A17A9C5F8D02049
S214005770344A30A8C5F8D420334ACDF860A0C5F81E
S214005780D820324AA6F85030C5F8DC20304A86F8D1
S2140057905230C5F8E0202F4AA6F85430C5F8E42069
S2140057A01A4686F85630A6F858301CF077FE04469F
S2140057B000287EF465AF0020002123F0B7FAD7F862
S2140057C0B030254E43F00103C7F8B0303019FBF770
S2140057D0E3FC0546002800F0E480002C3EF4E4AD2F
S2140057E0013C305D23F032FAF7E700BFAFF30080EC
S2140057F0FFFFFFFFFFFFFFFFE83A0020481E0020E4
S21400580081320200791A020059210200841E00200B
S214005810D0250020DDD20100A81B00207B1A020044
S214005820F43A0020612E020011AB0100B4230400FC
S21400583073C10100637E01009D240200DC23040086
S21400584069250200112602008FEE010041EE0100DC
S2140058501D24020005EE0100991B00206026002092
S214005860881E002023F8402C23F83E2C23F8362CE4
S21400587043F82E2C43F8222C013108E700ED027B7A
S21400588020F8102C013416E71B9B202B7FF42CAF3E
S214005890DF214FF4C0201BAB28AAFBF73FFA0028F5
S2140058A07FF422AF9DF8A030012B7FF41DAF9DF84A
S2140058B0A12030AC02F00F03013303EB83035B003F
